{
  "contractName": "ExerciseC6A",
  "abi": [
    {
      "inputs": [],
      "payable": false,
      "stateMutability": "nonpayable",
      "type": "constructor"
    },
    {
      "constant": true,
      "inputs": [
        {
          "internalType": "address",
          "name": "account",
          "type": "address"
        }
      ],
      "name": "isUserRegistered",
      "outputs": [
        {
          "internalType": "bool",
          "name": "",
          "type": "bool"
        }
      ],
      "payable": false,
      "stateMutability": "view",
      "type": "function"
    },
    {
      "constant": false,
      "inputs": [
        {
          "internalType": "address",
          "name": "account",
          "type": "address"
        },
        {
          "internalType": "bool",
          "name": "isAdmin",
          "type": "bool"
        }
      ],
      "name": "registerUser",
      "outputs": [],
      "payable": false,
      "stateMutability": "nonpayable",
      "type": "function"
    },
    {
      "constant": true,
      "inputs": [],
      "name": "isOperational",
      "outputs": [
        {
          "internalType": "bool",
          "name": "",
          "type": "bool"
        }
      ],
      "payable": false,
      "stateMutability": "view",
      "type": "function"
    },
    {
      "constant": false,
      "inputs": [
        {
          "internalType": "bool",
          "name": "mode",
          "type": "bool"
        }
      ],
      "name": "setOperatingStatus",
      "outputs": [],
      "payable": false,
      "stateMutability": "nonpayable",
      "type": "function"
    }
  ],
  "bytecode": "0x60806040526001600260006101000a81548160ff021916908315150217905550600060405190808252806020026020018201604052801561004f5781602001602082028038833980820191505090505b50600390805190602001906100659291906100b8565b5034801561007257600080fd5b50336000806101000a81548173ffffffffffffffffffffffffffffffffffffffff021916908373ffffffffffffffffffffffffffffffffffffffff160217905550610185565b828054828255906000526020600020908101928215610131579160200282015b828111156101305782518260006101000a81548173ffffffffffffffffffffffffffffffffffffffff021916908373ffffffffffffffffffffffffffffffffffffffff160217905550916020019190600101906100d8565b5b50905061013e9190610142565b5090565b61018291905b8082111561017e57600081816101000a81549073ffffffffffffffffffffffffffffffffffffffff021916905550600101610148565b5090565b90565b610963806101946000396000f3fe608060405234801561001057600080fd5b506004361061004c5760003560e01c8063110466ed14610051578063163f752214610081578063951faf00146100dd578063cd905dff1461012d575b600080fd5b61007f6004803603602081101561006757600080fd5b8101908080351515906020019092919050505061014f565b005b6100c36004803603602081101561009757600080fd5b81019080803573ffffffffffffffffffffffffffffffffffffffff169060200190929190505050610447565b604051808215151515815260200191505060405180910390f35b61012b600480360360408110156100f357600080fd5b81019080803573ffffffffffffffffffffffffffffffffffffffff169060200190929190803515159060200190929190505050610525565b005b6101356107af565b604051808215151515815260200191505060405180910390f35b600260009054906101000a900460ff16151581151514156101bb576040517f08c379a000000000000000000000000000000000000000000000000000000000815260040180806020018281038252602d815260200180610894602d913960400191505060405180910390fd5b600160003373ffffffffffffffffffffffffffffffffffffffff1673ffffffffffffffffffffffffffffffffffffffff16815260200190815260200160002060000160019054906101000a900460ff1661027d576040517f08c379a00000000000000000000000000000000000000000000000000000000081526004018080602001828103825260178152602001807f43616c6c6572206d75737420626520616e2061646d696e00000000000000000081525060200191505060405180910390fd5b600080905060008090505b600380549050811015610316573373ffffffffffffffffffffffffffffffffffffffff16600382815481106102b957fe5b9060005260206000200160009054906101000a900473ffffffffffffffffffffffffffffffffffffffff1673ffffffffffffffffffffffffffffffffffffffff1614156103095760019150610316565b8080600101915050610288565b50801561036e576040517f08c379a00000000000000000000000000000000000000000000000000000000081526004018080602001828103825260278152602001806109086027913960400191505060405180910390fd5b60033390806001815401808255809150509060018203906000526020600020016000909192909190916101000a81548173ffffffffffffffffffffffffffffffffffffffff021916908373ffffffffffffffffffffffffffffffffffffffff160217905550506002600380549050106104435781600260006101000a81548160ff021916908315150217905550600060405190808252806020026020018201604052801561042b5781602001602082028038833980820191505090505b50600390805190602001906104419291906107c6565b505b5050565b60008073ffffffffffffffffffffffffffffffffffffffff168273ffffffffffffffffffffffffffffffffffffffff1614156104ce576040517f08c379a00000000000000000000000000000000000000000000000000000000081526004018080602001828103825260228152602001806108c16022913960400191505060405180910390fd5b600160008373ffffffffffffffffffffffffffffffffffffffff1673ffffffffffffffffffffffffffffffffffffffff16815260200190815260200160002060000160009054906101000a900460ff169050919050565b600260009054906101000a900460ff1661058a576040517f08c379a00000000000000000000000000000000000000000000000000000000081526004018080602001828103825260258152602001806108e36025913960400191505060405180910390fd5b6000809054906101000a900473ffffffffffffffffffffffffffffffffffffffff1673ffffffffffffffffffffffffffffffffffffffff163373ffffffffffffffffffffffffffffffffffffffff161461064c576040517f08c379a000000000000000000000000000000000000000000000000000000000815260040180806020018281038252601c8152602001807f43616c6c6572206973206e6f7420636f6e7472616374206f776e65720000000081525060200191505060405180910390fd5b600160008373ffffffffffffffffffffffffffffffffffffffff1673ffffffffffffffffffffffffffffffffffffffff16815260200190815260200160002060000160009054906101000a900460ff161561070f576040517f08c379a000000000000000000000000000000000000000000000000000000000815260040180806020018281038252601b8152602001807f5573657220697320616c726561647920726567697374657265642e000000000081525060200191505060405180910390fd5b6040518060400160405280600115158152602001821515815250600160008473ffffffffffffffffffffffffffffffffffffffff1673ffffffffffffffffffffffffffffffffffffffff16815260200190815260200160002060008201518160000160006101000a81548160ff02191690831515021790555060208201518160000160016101000a81548160ff0219169083151502179055509050505050565b6000600260009054906101000a900460ff16905090565b82805482825590600052602060002090810192821561083f579160200282015b8281111561083e5782518260006101000a81548173ffffffffffffffffffffffffffffffffffffffff021916908373ffffffffffffffffffffffffffffffffffffffff160217905550916020019190600101906107e6565b5b50905061084c9190610850565b5090565b61089091905b8082111561088c57600081816101000a81549073ffffffffffffffffffffffffffffffffffffffff021916905550600101610856565b5090565b9056fe4e6577206d6f6465206d75737420626520646966666572656e742066726f6d206578697374696e67206d6f6465276163636f756e7427206d75737420626520612076616c696420616464726573732e436f6e74726163742069732063757272656e746c79206e6f74206f7065726174696f6e616c43616c6c65722068617320616c72656164792063616c6c656420746869732066756e6374696f6ea265627a7a72315820321804ca74a068c7fcbdd8dd26bd67cab95cb7ec716e806b8c4606c551cf7de364736f6c63430005100032",
  "source": "pragma solidity >=0.4.25;\n\ncontract ExerciseC6A {\n    /********************************************************************************************/\n    /*                                       DATA VARIABLES                                     */\n    /********************************************************************************************/\n\n    uint constant M = 2;\n\n    struct UserProfile {\n        bool isRegistered;\n        bool isAdmin;\n    }\n\n    address private contractOwner; // Account used to deploy contract\n    mapping(address => UserProfile) userProfiles; // Mapping for storing user profiles\n\n    bool private operational = true;\n\n    address[] multiCalls = new address[](0);\n\n    /********************************************************************************************/\n    /*                                       EVENT DEFINITIONS                                  */\n    /********************************************************************************************/\n\n    // No events\n\n    /**\n     * @dev Constructor\n     *      The deploying account becomes contractOwner\n     */\n    constructor() public {\n        contractOwner = msg.sender;\n    }\n\n    /********************************************************************************************/\n    /*                                       FUNCTION MODIFIERS                                 */\n    /********************************************************************************************/\n\n    // Modifiers help avoid duplication of code. They are typically used to validate something\n    // before a function is allowed to be executed.\n\n    /**\n     * @dev Modifier that requires the \"ContractOwner\" account to be the function caller\n     */\n    modifier requireContractOwner() {\n        require(msg.sender == contractOwner, \"Caller is not contract owner\");\n        _;\n    }\n\n    /**\n     * @dev Modifier that requires the operational variable to be true\n     * this is used on all state changing functions to pause the contract\n     * in the event there is an issue that needs to be fixed\n     */\n    modifier requireIsOperational() {\n        require(operational, 'Contract is currently not operational');\n        _; // this indicates where the body will be called\n    }\n    \n\n    /********************************************************************************************/\n    /*                                       UTILITY FUNCTIONS                                  */\n    /********************************************************************************************/\n\n    /**\n     * @dev Check if a user is registered\n     *\n     * @return A bool that indicates if the user is registered\n     */\n    function isUserRegistered(address account) external view returns (bool) {\n        require(account != address(0), \"'account' must be a valid address.\");\n        return userProfiles[account].isRegistered;\n    }\n\n    /********************************************************************************************/\n    /*                                     SMART CONTRACT FUNCTIONS                             */\n    /********************************************************************************************/\n\n    function registerUser(address account, bool isAdmin) external requireIsOperational requireContractOwner {\n        require(\n            !userProfiles[account].isRegistered,\n            \"User is already registered.\"\n        );\n\n        userProfiles[account] = UserProfile({\n            isRegistered: true,\n            isAdmin: isAdmin\n        });\n    }\n\n    /**\n     * @dev get the operational status of the contract\n     *\n     * @return A bool that indicates if the contract is operational\n     */\n    function isOperational() public view returns(bool) {\n        return operational;\n    }  \n\n    /**\n    * @dev Sets contract operations on/off\n    *\n    * When operational mode is disabled, all write transactions except for this one will fail\n    */    \n\n    function setOperatingStatus (bool mode) external {\n        require(mode != operational, \"New mode must be different from existing mode\");\n        require(userProfiles[msg.sender].isAdmin, \"Caller must be an admin\");\n\n        bool isDuplicate = false;\n        for(uint call = 0; call < multiCalls.length; call++) {\n            if (multiCalls[call] == msg.sender) {\n                isDuplicate = true;\n                break;\n            }\n        }\n        require(!isDuplicate, \"Caller has already called this function\");\n\n        multiCalls.push(msg.sender);\n        if (multiCalls.length >= M) {\n            operational = mode;\n            multiCalls = new address[](0);\n        }\n    }\n}\n",
  "sourcePath": "/home/frank/Desktop/Projects/BCND-C6-Exercises/contracts/ExerciseC6A.sol",
  "compiler": {
    "name": "solc",
    "version": "0.5.16+commit.9c3226ce.Emscripten.clang"
  },
  "schemaVersion": "3.4.3",
  "updatedAt": "2022-01-26T09:24:15.819Z",
  "devdoc": {
    "methods": {
      "constructor": {
        "details": "Constructor     The deploying account becomes contractOwner"
      },
      "isOperational()": {
        "details": "get the operational status of the contract",
        "return": "A bool that indicates if the contract is operational"
      },
      "isUserRegistered(address)": {
        "details": "Check if a user is registered",
        "return": "A bool that indicates if the user is registered"
      },
      "setOperatingStatus(bool)": {
        "details": "Sets contract operations on/off    * When operational mode is disabled, all write transactions except for this one will fail"
      }
    }
  },
  "userdoc": {
    "methods": {
      "registerUser(address,bool)": {
        "notice": "*****************************************************************************************"
      }
    }
  }
}